:100000000C9408010C9427010C9427010C942701EF
:100010000C9427010C9427010C9427010C942701C0
:100020000C9427010C9427010C9427010C942701B0
:100030000C9427010C9427010C9427010C942701A0
:100040000C9427010C9427010C9427010C94270190
:100050000C9427010C9427010C9427010C94270180
:100060000C9427010C9427010C9427010C94270170
:100070000C9427010C9427010C9427010C94270160
:100080000C9427010C9427010C9427010763423636
:10009000B79BD8A71A39685618AEBAAB558C1D3C19
:1000A000B7CC5763BD6DEDFD753EF6177231BF00DD
:1000B0000000803F08000000BE922449123EABAA17
:1000C000AA2ABECDCCCC4C3E00000080BEABAAAA72
:1000D000AA3E00000000BF000000803F00000000BA
:1000E00000084178D3BB4387D1133D190E3CC3BDF3
:1000F0004282AD2B3E68EC8276BED98FE1A93E4CA0
:1001000080EFFFBE01C4FF7F3F00000000006E6172
:100110006E00696E660000407A10F35A00A0724EBD
:1001200018090010A5D4E80000E87648170000E49C
:100130000B54020000CA9A3B000000E1F5050000E4
:1001400080969800000040420F000000A086010049
:100150000000102700000000E80300000000640019
:10016000000000000A000000000001000000000084
:100170002C76D888DC674F0823DFC1DFAE59E1B1A8
:10018000B796E5E3E453C63AE651997696E8E6C2B7
:100190008426EB898C9B62ED407C6FFCEFBC9C9FBE
:1001A00040F2BAA56FA5F490055A2AF75C936B6CE0
:1001B000F9676DC11BFCE0E40D47FEF520E6B500D4
:1001C000D0ED902E0300943577050080841E080042
:1001D00000204E0A000000C80C333333330F986EF2
:1001E00012831141EF8D2114893BE65516CFFEE6AF
:1001F000DB18D1844B381BF77C1D901DA4BBE42475
:10020000203284725E228100C9F124ECA1E53D27F1
:1002100011241FBECFEFD0E1DEBFCDBF11E0A0E0C3
:10022000B1E0EAE5FFE200E00BBF02C007900D92EB
:10023000AC3DB107D9F722E0ACEDB1E001C01D92B1
:10024000A130B207E1F70E94B7090C94AB170C94E8
:100250000000CF93DF931F92CDB7DEB719829E01C6
:100260002F5F3F4F41E060E08091DD010E94740903
:1002700081E09981953E09F080E00F90DF91CF9168
:1002800008954BE061E38091DD010C94490948E059
:100290006DE28091DD010C9449098093DD010E949B
:1002A0002901882359F048E06CE28091DD010E9429
:1002B00049090E9441010E94470181E00895CF92BF
:1002C000DF92EF92FF920F931F93CF93DF9300D0B3
:1002D00000D000D0CDB7DEB76C017B018A019E0152
:1002E0002F5F3F4F46E062E38091DD010E94740979
:1002F0002A8130E0322F22278981282BF601318391
:1003000020838C8190E0982F88272B81822BF70106
:10031000918380838E8190E0982F88272D81822B76
:10032000F8019183808381E090E026960FB6F894DF
:10033000DEBF0FBECDBFDF91CF911F910F91FF9018
:10034000EF90DF90CF900895CF92DF92EF92FF92DF
:100350000F931F93CF93DF9300D000D000D0CDB781
:10036000DEB76C017B018A01AE014F5F5F4FBE01BA
:100370006D5F7F4FCE0105960E945F016D817E818A
:10038000072E000C880B990B0E94F4122DEC3CEC0C
:100390004CE15DE30E94A413F601608371838283C4
:1003A00093836B817C81072E000C880B990B0E9434
:1003B000F4122DEC3CEC4CE15DE30E94A413F70138
:1003C000608371838283938369817A81072E000C15
:1003D000880B990B0E94F4122DEC3CEC4CE15DE390
:1003E0000E94A413F801608371838283938381E068
:1003F00090E026960FB6F894DEBF0FBECDBFDF911A
:10040000CF911F910F91FF90EF90DF90CF900895C3
:10041000462F682F8091E8010C944909CF93DF9310
:100420001F92CDB7DEB79E012F5F3F4F41E0682F8F
:100430008091E8010E94740989810F90DF91CF912A
:100440000895CF93DF9300D0CDB7DEB79E012F5F25
:100450003F4F42E0682F8091E8010E947409898132
:1004600090E0982F88272A81822B0F900F90DF91A0
:10047000CF9108950E9421029827892798270895EF
:100480000C943A02CF93DF9300D01F92CDB7DEB722
:100490009E012F5F3F4F43E0682F8091E8010E944B
:1004A00074096981862F90E0A0E0B0E0BA2FA92FEF
:1004B000982F88272A81822BBA2FA92F982F882737
:1004C0002B81BC01CD01622B0F900F900F90DF911B
:1004D000CF91089588E80E943A029093E1018093B9
:1004E000E0018AE80E943A029093E3018093E201DE
:1004F0008CE80E943A029093F4018093F3018EE815
:100500000E943A029093EC018093EB0180E90E94F3
:100510003A029093E5018093E40182E90E943A0255
:100520009093EE018093ED0184E90E943A0290934A
:10053000E7018093E60186E90E943A029093EA017E
:100540008093E90188E90E943A029093F601809332
:10055000F5018AE90E943A029093DF018093DE015F
:100560008CE90E943A029093F0018093EF018EE9AA
:100570000E943A029093F2018093F10108958093D2
:10058000E80180ED0E940E02883541F40E946A0263
:1005900068E685EF0E94080281E0089580E00895F2
:1005A0008F929F92AF92BF92CF92DF92EF92FF9283
:1005B0008AEF0E9442024091E0015091E1014A011C
:1005C000A12CB12CC72ED82EE92EFF24E7FCFA94DB
:1005D000C818D908EA08FB08DC01CB0137E0B5955B
:1005E000A795979587953A95D1F7B501A401440F42
:1005F000551F661F771F4C015D01841A950AA60AD4
:10060000B70AA5019401A091E201B091E3010E9413
:10061000C9114B015C01FBE0B594A79497948794B2
:10062000FA95D1F7A7019601C701B6010E9478118A
:100630009B01AC01ACE05595479537952795AA9558
:10064000D1F7A091F301B091F4010E94C911DC012E
:10065000CB012EE0B595A795979587952A95D1F76B
:10066000A5019401280F391F4A1F5B1F2093F70132
:100670003093F8014093F9015093FA01A5E0B0E0FE
:100680000E94BE11DC01CB0180589F4FAF4FBF4F7E
:10069000692F7A2F8B2F992787FD9A95FF90EF90DE
:1006A000DF90CF90BF90AF909F908F9008952F9242
:1006B0003F924F925F926F927F928F929F92AF92F2
:1006C000BF92CF92DF92EF92FF920F931F93CF933F
:1006D000DF93CDB7DEB728970FB6F894DEBF0FBE15
:1006E000CDBF0E94D00287EF0E94420269837A83C5
:1006F0008B839C838090F7019090F801A090F90182
:10070000B090FA01B594A794979487942AEF921A1F
:10071000A108B108C501B401E2E0959587957795E8
:100720006795EA95D1F79B01AC010E9478116B01A6
:100730007C01E091F501F091F6012090E901309003
:10074000EA010091E6011091E701A091ED01B0915D
:10075000EE019B01AC018DE05595479537952795A6
:100760008A95D1F70E94C9112B013C0193E0759441
:100770006794579447949A95D1F7A091E401B0916A
:10078000E501A50194010E94C911DC01CB01B595D9
:10079000A79597958795840D951DA61DB71D32E1E8
:1007A000B595A795979587953A95D1F79C01AD0199
:1007B00030584F4F5F4FA091EB01B091EC010E9478
:1007C000BE112B013C014FE07594679457944794F8
:1007D0004A95D1F7411451046104710409F4CAC067
:1007E000A70196016BE055954795379527956A9532
:1007F000D1F7DF010E94C9116B017C01D101A50174
:1008000094010E94C911DC01CB01880F991FAA1F16
:10081000BB1F8C0D9D1DAE1DBF1DE2E0B595A795BC
:1008200097958795EA95D1F7C980DA80EB80FC80AF
:10083000F4E0F594E794D794C794FA95D1F7F0943F
:10084000E094D094C094C11CD11CE11CF11C012E79
:10085000000C220B330B980111270027080F191FDA
:100860002A1F3B1F5CE035952795179507955A95EC
:10087000D1F7D701C601801B910BA20BB30B9C01D2
:10088000AD01A5E3BCE00E94BE11805B9C4397FDD7
:100890000BC0660F771F881F991FA30192010E944A
:1008A0009C1169017A010AC0A30192010E949C1166
:1008B00069017A01CC0CDD1CEE1CFF1CC701B601DE
:1008C00023E096958795779567952A95D1F7E091DE
:1008D000F101F091F2019B01AC010E9478119B01A2
:1008E000AC016DE056954795379527956A95D1F7F8
:1008F000DF010E94C9114B015C017CE0B594A79413
:10090000979487947A95D1F7A7019601E2E05695DE
:10091000479537952795EA95D1F7A091EF01B091CA
:10092000F0010E94C911DC01CB01FDE0B595A7954E
:1009300097958795FA95D1F7880D991DAA1DBB1D2E
:100940004091DE015091DF01052E000C660B770B04
:10095000840F951FA61FB71F14E0B595A79597950F
:1009600087951A95D1F7BC01CD016C0D7D1D8E1DAB
:100970009F1D03C060E070E0CB0128960FB6F8948D
:10098000DEBF0FBECDBFDF91CF911F910F91FF90C2
:10099000EF90DF90CF90BF90AF909F908F907F901F
:1009A0006F905F904F903F902F9008952F923F92BD
:1009B0004F925F926F927F928F929F92AF92BF926F
:1009C000CF92DF92EF92FF920F931F93CF93DF931B
:1009D000CDB7DEB728970FB6F894DEBF0FBECDBFF8
:1009E0008C0178876F830E94D002F8016083718345
:1009F0008283938387EF0E94420269837A838B8389
:100A00009C836091F7017091F8018091F9019091B8
:100A1000FA010E94F41220E030E040E05FE30E941F
:100A2000A41320E030E04AE757E40E940E126B0165
:100A30007C010091F5011091F6012090E9013090C0
:100A4000EA012091E6013091E7013E832D83609118
:100A5000ED017091EE01072E000C880B990B0E949E
:100A6000F412A70196010E94A413A70196010E9407
:100A7000A41320E030E040E056E30E94A4134B01B1
:100A80005C016091E4017091E501072E000C880B78
:100A9000990B0E94F412A70196010E94A4139B01D6
:100AA000AC01C501B4010E940F1220E030E040E02B
:100AB00056E30E94A41320E030E040E058E30E9497
:100AC000A41320E030E040E85FE30E940F124B01E6
:100AD0005C016091EB017091EC0180E090E00E947C
:100AE000F2129B01AC01C501B4010E94A4134B0199
:100AF0005C0120E030E0A9010E947B12811107C057
:100B0000EF81F8851082118212821382D7C0A7016B
:100B10009601C701B6010E94A4132B013C01B80144
:100B2000110F880B990B0E94F4129B01AC01C301B9
:100B3000B2010E94A41320E030E040E058E30E949C
:100B4000A4132B013C01B101330C880B990B0E94BB
:100B5000F4129B01AC01C701B6010E94A4139B01D2
:100B6000AC010E940F129B01AC01C301B2010E94B3
:100B70000F1220E030E040E85EE30E94A4136B0116
:100B80007C0169817A818B819C8124E09595879590
:100B9000779567952A95D1F70E94F4129B01AC01D5
:100BA00060E070E080E899E40E940E122B013C01A5
:100BB0002D813E81B901330F880B990B0E94F412ED
:100BC00020E030E040E857E40E94A4139B01AC0110
:100BD000C701B6010E940F1220E030E040E859E35F
:100BE0000E94A4139B01AC01C301B2010E940E122A
:100BF00020E030E543EC55E40E94A413A5019401E4
:100C00000E9480126B017C016091F1017091F201F0
:100C1000072E000C880B990B0E94F412A701960175
:100C20000E94A413A70196010E94A41320E030E0C3
:100C300040E050E30E94A4134B015C018091EF015E
:100C40009091F001BC01990F880B990B0E94F4124E
:100C50009B01AC01C701B6010E94A41320E030E063
:100C600040E058E30E94A4139B01AC01C501B4010C
:100C70000E940F124B015C018091DE019091DF0117
:100C8000BC01990F880B990B0E94F4129B01AC01D7
:100C9000C501B4010E940F1220E030E040E85DE39E
:100CA0000E94A4139B01AC01C701B6010E940F1260
:100CB000EF81F885608371838283938328960FB6D2
:100CC000F894DEBF0FBECDBFDF91CF911F910F9182
:100CD000FF90EF90DF90CF90BF90AF909F908F905C
:100CE0007F906F905F904F903F902F90089520E8F5
:100CF00036EE45EC57E4FC0160817181828193817D
:100D00000E94801222E63BED42E45EE30E94111451
:100D10009B01AC0160E070E080E89FE30E940E124E
:100D200020E03AE24DE257E40E94A4130895EF92C6
:100D3000FF920F931F93CF93DF937C01EB018A0106
:100D400065E584EF0E9408022FEF82E191E02150D7
:100D500080409040E1F700C00000BE01C7010E9442
:100D6000D604CE010E947706F801608371838283E6
:100D7000938381E0DF91CF911F910F91FF90EF90CE
:100D80000895382FFC0180E04CE89E2F931B9617A6
:100D900058F4219198E0522F5827869550FD8427CA
:100DA00026959150C1F7F1CF08956F927F929F924F
:100DB000AF92BF92CF92DF92EF92FF920F931F9369
:100DC000CF93DF937C016B015A01922EE8012097AB
:100DD00021F40CEC0E94740B11C005E50E94740B09
:100DE0003E0188E0680E711C0991292DA501B6010C
:100DF000C7010E94740BC615D705B1F7DF91CF91DB
:100E00001F910F91FF90EF90DF90CF90BF90AF9028
:100E10009F907F906F900895BF92CF92DF92EF9254
:100E2000FF920F931F93CF93DF93EC017B016A0135
:100E3000B22E0E940E0B813071F02B2DA601B7014E
:100E4000CE010E94D50604E42B2DA601B701CE01E8
:100E50000E94740B80E0DF91CF911F910F91FF9062
:100E6000EF90DF90CF90BF9008957F928F929F92E6
:100E7000AF92BF92CF92DF92EF92FF920F931F93A8
:100E8000CF93DF936C015B014A01722EE7010E9450
:100E90000E0B8130C1F1272DA401B501C6010E94BE
:100EA000D5060EEB272DA401B501C6010E94740BD7
:100EB0008E01075F1F4F272DA401B501C6010E94B7
:100EC000C80BF70181937F01E017F107A1F7998122
:100ED0008881892B9A81892B9B81892B9C81892BE5
:100EE0009D81892B9E81892B9F81892B49F068E008
:100EF000CE010E94C1069885891304C080E003C01A
:100F000083E001C082E0DF91CF911F910F91FF90AC
:100F1000EF90DF90CF90BF90AF909F908F907F9099
:100F200008956F927F928F929F92AF92CF92EF929D
:100F3000FF920F931F93CF93DF93EC014B013A0184
:100F4000F22E0E940E0B813019F12F2DA301B40156
:100F5000CE010E94D5060EE42F2DA301B401CE01CF
:100F60000E94740B0E2D2F2DA301B401CE010E94FF
:100F7000740B0C2D2F2DA301B401CE010E94740B14
:100F80000A2D2F2DA301B401CE010E94740B80E025
:100F9000DF91CF911F910F91FF90EF90CF90AF9085
:100FA0009F908F907F906F900895AF92BF92CF9255
:100FB000DF92EF92FF920F931F93CF936C017B010F
:100FC0005A01C22F0E940E0B8130B1F02C2FA501C7
:100FD000B701C6010E94D50608E42C2FA501B70170
:100FE000C6010E94740BF60180818C2B8083F7016F
:100FF0008081C82BC08380E0CF911F910F91FF901B
:10100000EF90DF90CF90BF90AF900895CF92DF9296
:10101000EF92FF920F931F93CF93DF93CDB7DEB77D
:1010200029970FB6F894DEBF0FBECDBF6701FE0152
:1010300031967F010E943507882321F0F601118245
:1010400010820BC08A8190E0982F88272981820F17
:10105000911DF6019183808380E029960FB6F89464
:10106000DEBF0FBECDBFDF91CF911F910F91FF90DB
:10107000EF90DF90CF9008955F926F927F928F9262
:101080009F92AF92BF92CF92DF92EF92FF920F9317
:101090001F93CF93DF930115110509F440C0E801B8
:1010A000522E5A016B017C010E940E0B8130E1F13E
:1010B00003E3252DA501B601C7010E94740B8E0123
:1010C0003E0188E0680E711C4E01252DA501B60178
:1010D000C7010E94C80BF40181934F01E615F70583
:1010E000A1F7FF8099818881892B9A81892B9B8127
:1010F000892B9C81892B9D81892B9E81892B8F290E
:1011000081F067E0CE010E94C1068F1561F0F80101
:1011100011928F01E615F705D1F782E005C084E052
:1011200003C083E001C080E0DF91CF911F910F9158
:10113000FF90EF90DF90CF90BF90AF909F908F90F7
:101140007F906F905F900895AF92CF92EF92FF9251
:101150000F931F93CF93DF93EC0100E010E020E8A2
:1011600046E350E067E370E088E390E00E940C07FC
:1011700080E2A82EC12CE12C20E846E350E067E392
:1011800070E088E390E00E94910720E846E350E099
:1011900067E370E088E390E00E940C077E0120E89E
:1011A00046E350E067E370E088E390E00E940608C1
:1011B00081E0DF91CF911F910F91FF90EF90CF9041
:1011C000AF9008950E9488116051710976956795D6
:1011D0006093700010927100E4E7F0E08081846019
:1011E00080830895E4E7F0E080818B7F8083089519
:1011F00084EA809374008091740087FFFCCF089587
:1012000084E9809374008091740084FDFCCF08957C
:101210008093730084E8809374008091740087FF4A
:10122000FCCF80917100887F883169F080917100D6
:10123000887F883241F090917100987F81E09034EE
:1012400019F080E0089581E00895FC019091740008
:10125000662311F0906401C09F7B9093740090917D
:1012600074009068909374008091740087FFFCCFA5
:1012700090917100987F983529F090917100987F36
:10128000903529F480917300808381E0089580E097
:101290000895CF93DF9300D01F92CDB7DEB74B8375
:1012A0006A8389830E94F8088981880F0E9408094F
:1012B0006A81862F0E9408094B81842F0E940809A9
:1012C0008FE19EE40197F1F700C000000E94000941
:1012D0008FED9EE20197F1F700C000000F900F9094
:1012E0000F90DF91CF910895EF92FF920F931F938C
:1012F000CF93DF9300D0CDB7DEB7F82E042F122F97
:101300003A8369830E94F808FF0C8F2D0E94080918
:101310006981862F0E9408090E94F80881E08F0DDC
:101320000E940809E12E3A81F32E8E2D811B801731
:1013300040F461E0C7010E9425098FEFE81AF80A1E
:10134000F4CF0F900F90DF91CF911F910F91FF90ED
:10135000EF900895CF93C82F8A3019F48DE00E9442
:10136000AA098C2F0E94AC0D80E0CF9108952F9296
:101370003F924F925F926F927F928F929F92AF9225
:10138000BF92CF92DF92EF92FF920F931F93CF9372
:10139000DF93CDB7DEB76E970FB6F894DEBF0FBE02
:1013A000CDBF80E895E20E94980D60EA76E880E083
:1013B00092E10E94E20880E091E09093FE01809328
:1013C000FD018EE091E09F938F930E94091787E7BC
:1013D0000E94BF020F900F908130B9F484E191E038
:1013E0000E941D178DE10E944D01813089F482E435
:1013F00091E09F938F930E9409170F900F900AE03E
:1014000010E0C12CD12C76010CC089E291E0E9C03A
:101410008FE491E09F938F930E9409170F900F9094
:10142000E2C0AE01435F5F4FBE016F5E7F4FCE01F2
:1014300045960E9497062D853E854F855889C701A0
:10144000B6010E940F126B017C010150110949F78E
:1014500020E030E040E251E40E9480126B8F7C8FEC
:101460008D8F9E8F80E6282E81E0382EAE01435F5F
:101470005F4FBE016F5E7F4FCE0145960E9497067B
:10148000182FAE014F5F5F4FBE016B5F7F4FCE01E4
:1014900009960E94A401082F69857A858B859C8511
:1014A0008D809E80AF80B884C980DA80EB80FC801C
:1014B0009B01AC010E94A4132B013C01A5019401E6
:1014C000C501B4010E94A4139B01AC01C301B20188
:1014D0000E940F124B015C01A7019601C701B601E2
:1014E0000E94A4139B01AC01C501B4010E940F121C
:1014F0000E946714F62EE72ED82EC92ECE014996EB
:101500000E94A40891E0813009F090E021E01130C0
:1015100009F020E0292309F462C0013009F05FC01E
:10152000698D7A8D072E000C880B990B0E94F4129E
:1015300020E030E040E85DE30E94A4139F938F9386
:101540007F936F93CF92DF92EF92FF928C818F9374
:101550008B818F938A818F9389818F9388858F93D5
:101560008F818F938E818F938D818F938C858F93B5
:101570008B858F938A858F9389858F932B8D3C8D57
:101580004D8D5E8D6D857E858F8598890E940E12AA
:101590009F938F937F936F938C898F938B898F9376
:1015A0008A898F9389898F93888D8F938F898F9361
:1015B0008E898F938D898F933F922F920E94091766
:1015C0002FE78AE196E0215080409040E1F700C08B
:1015D00000000FB6F894DEBF0FBECDBF47CF83EC3F
:1015E00091E00E941D1780E090E06E960FB6F8948F
:1015F000DEBF0FBECDBFDF91CF911F910F91FF9046
:10160000EF90DF90CF90BF90AF909F908F907F90A2
:101610006F905F904F903F902F900895CF93DF93FE
:10162000DC01FB016FB78C91822B8C938081822B24
:1016300080839C91322F309593239C938FEA94E082
:101640000197F1F700C000008081832380839AEB2B
:101650009A95F1F700C0EA018881CFE8D1E021979F
:10166000F1F700C000009C91922B9C939081922BEB
:101670009083EFEAF4E03197F1F700C000006FBF0C
:10168000282381E009F480E0DF91CF9108950F9342
:10169000FC019FB78081822B8083DB018C91822BA0
:1016A0008C933081822F809583238083002321F0C7
:1016B000B5E1BA95F1F703C085ED8A95F1F7000021
:1016C0008081282B2083002321F0A5EDAA95F1F736
:1016D00003C0B5E0BA95F1F700009FBF81E00111AA
:1016E00001C080E00F9108957F928F929F92AF92F8
:1016F000BF92CF92DF92EF92FF920F931F93CF93FF
:10170000DF936C015B014A01E22E702EFFB6C8E048
:10171000D0E011E0012F07212E2DA401B501C60153
:101720000E94470B110F2197A9F7FFBEDF91CF91C0
:101730001F910F91FF90EF90DF90CF90BF90AF90EF
:101740009F908F907F900895DC01FB016FB78C9183
:10175000822B8C938081822B80839C91322F3095B9
:1017600093239C9385E08A95F1F700008081832381
:1017700080839DE09A95F1F70000FA018081F0EAFC
:10178000FA95F1F76FBF282381E009F480E008950E
:101790008F929F92AF92BF92CF92DF92EF92FF9281
:1017A0000F931F93CF93DF936C015B014A01E22EED
:1017B000FFB608E010E0D1E0C0E02E2DA401B50195
:1017C000C6010E94A40B8D9FC0011124C82BDD0F00
:1017D0000150110991F7FFBE8C2FDF91CF911F911E
:1017E0000F91FF90EF90DF90CF90BF90AF909F90C0
:1017F0008F9008952F923F924F925F926F927F92B7
:101800008F929F92AF92BF92CF92DF92EF92FF9210
:101810000F931F93CF93DF93CDB7DEB7A3970FB688
:10182000F894DEBF0FBECDBF3FB73F87011511054E
:1018300009F464C1DF8ECE8EFD8EEC8E1B8F0A8F75
:101840002E875D874C877B876A879987888710E01A
:10185000F12C912C812C712C612C312C212C1B8290
:101860002E854C855D856A857B85888599850E9456
:101870000E0B813031F4AA8DBB8D1C92BF85BFBF8A
:101880003EC100EF2E854C855D856A857B85888508
:1018900099850E94740B1C83FD829E828F82472C47
:1018A000562C39822A82E0E4F0E0F98BE88B1A8A20
:1018B0001B8A1C8A1D8A1E8A1F8A188E198E66240E
:1018C0006394712C812C912C1BA218A2212C312CF9
:1018D0002E854C855D856A857B85888599850E94E6
:1018E000A40B182F2E854C855D856A857B858885A0
:1018F00099850E94A40B880F182B133020F4113007
:1019000060F0117061C0133009F05EC0AA8DBB8D0C
:101910001C92BF85BFBF81E0F2C09301A4016BA1FF
:1019200078A1C10101E00E94D11159016A017B0136
:101930008C012C813D814E815F81B20189819A8128
:10194000B22FB621A32FA721E42FE821E9A3F52F79
:10195000F9210E94EA1180F011E02B2F3A2FAF01FC
:101960006BA1642178A1752182219321A0E00E94BE
:10197000F31151F110E028C011E02B2F3A2F49A1AB
:101980005F2F6BA1642178A17521898182219A81C1
:101990009321A0E00E94F31109F410E0FC81F625E8
:1019A000FC832D8127252D833E8138253E834F8161
:1019B00049254F835BA1452668A15626798172256A
:1019C00079838A8183258A83012F2E854C855D85C5
:1019D0006A857B85888599850E94470B112349F08C
:1019E000762D672D582D492D3BA128A1922D832DB1
:1019F00008C070E060E050E040E030E020E090E0BF
:101A000080E0AA89A72BAA8BBB89B62BBB8BEC895C
:101A1000E52BEC8BFD89F42BFD8B4E89432B4E8BF4
:101A20005F89522B5F8B688D692B688F798D782B3E
:101A3000798F9301A4016BA178A1C10101E00E94FB
:101A4000D11139014A016BA378A31C0188899989B6
:101A50000197998B888B892B09F03ACF1C81FD80E7
:101A60009E808F80742C652C39802A80AC8DBD8D32
:101A7000AB2B41F1BB81EB2FF0E0CF01019623E0CE
:101A8000880F991F2A95E1F72E8D3F8D281739076A
:101A9000C8F083E0EE0FFF1F8A95E1F74C8D5D8D56
:101AA000E40FF51F5A8950836B8961837C897283A7
:101AB0008D8983839E899483AF89A583B88DB683EE
:101AC000298D27833B813F5F3B83332361F02C814A
:101AD0003D814E815F81B20189819A81A0E00E949F
:101AE000F31109F0BDCEEB81AA8DBB8DEC93FF8580
:101AF000FFBF81E0EE2319F080E001C084E0A396EF
:101B00000FB6F894DEBF0FBECDBFDF91CF911F910E
:101B10000F91FF90EF90DF90CF90BF90AF909F908C
:101B20008F907F906F905F904F903F902F9008958F
:101B30009C0140E050E060E271EA87E090E00E94A2
:101B40009C11215031093093900029B988E18AB95C
:101B500086E08093950008955D9BFECF8CB9089533
:101B60005F9BFECF8CB10895EF92FF920F931F936E
:101B7000CF93DF937C018C01C62FD0E0C8018E1972
:101B80009F098C179D0734F4F80181918F010E9401
:101B9000AC0DF4CF5E9BFECFDF91CF911F910F91E3
:101BA000FF90EF9008952F923F924F925F926F9225
:101BB0007F928F929F92AF92BF92CF92DF92EF92DD
:101BC000FF920F931F93CF93DF93CDB7DEB7639749
:101BD0000FB6F894DEBF0FBECDBF6C014B012A01DA
:101BE000FC0117821682838181FF43C3AE014F5FE0
:101BF0005F4F3A01F6019381F40193FD859193FFC4
:101C000081914F01882309F430C3853239F493FD63
:101C1000859193FF81914F01853239F4B60190E0AF
:101C20000E94D11652012501E5CF10E0F12C20E0F1
:101C30002032A0F48B3269F030F4803259F08332D4
:101C400069F420612CC08D3239F0803339F4216081
:101C500026C02260246023C0286021C027FD27C041
:101C600030ED380F3A3078F426FF06C0FAE01F9FB7
:101C7000300D1124132F13C04AE0F49E300D1124AF
:101C8000F32E20620CC08E3221F426FDEEC22064B9
:101C900006C08C3611F4206802C0883641F4F40185
:101CA00093FD859193FF81914F018111C1CF9BEBF2
:101CB000980F933018F42061805E06C09BE9980F5E
:101CC000933008F071C12F7E26FF16E02F73322E5D
:101CD000853619F42064322E08C0863621F4F22F9E
:101CE000F0683F2E02C01111115037FE07C01C339F
:101CF00050F4EE24E394E10E27E00BC0183038F0E6
:101D000027E017E005C027E04CE3E42E02C0212FB6
:101D1000E12C520144E0A40EB11CF20160817181FA
:101D2000828193810E2DA3010E94E3152C0109816C
:101D300000FF02C003FF07C031FC08C032FE09C02B
:101D400030E2232E07C02DE2222E04C09BE2292E72
:101D500001C0212C802F8C7019F0211068C2A8C2FC
:101D600037FE0FC0E40C04FF04C08A81813309F4FC
:101D7000EA941E1474F5F8E0FE1578F588E0E82E74
:101D80002CC036FC2AC0812F90E0841595059CF06C
:101D90002CEF42162FEF520674F0432D4068342E7C
:101DA0000AC0E2E0F0E0EC0FFD1FE10FF11D8081C1
:101DB000803319F411501111F4CF37FE0EC0EE2408
:101DC000E394E10E812F90E0481659062CF4141983
:101DD00004C0EE24E39401C010E037FE06C01414E2
:101DE000150434F4C201019605C085E090E002C0FC
:101DF00081E090E021100196112331F0212F30E095
:101E00002F5F3F4F820F931F2F2D30E082179307D4
:101E100014F4F81A01C0F12C832D897049F4FF20C5
:101E200039F0B60180E290E00E94D116FA94F7CF23
:101E3000222029F0B601822D90E00E94D11633FCB9
:101E400009C0FF2039F0B60180E390E00E94D1166E
:101E5000FA94F7CF37FE5AC0942D852D57FE02C055
:101E600090E080E0292E382E20E030E0A2014E19CB
:101E700051095D874C87A201421953095F874E873C
:101E8000612F70E044275527461B570B598B488B11
:101E90005FEF2516350649F4B6018EE290E02A8BF5
:101EA0003B8B0E94D1163B892A89421453046CF063
:101EB0004C855D854215530544F4EE85FF85E20FA0
:101EC000F31FE60DF71D818101C080E351E0251A63
:101ED00031082F5F3F4F48895989241635064CF049
:101EE000B60190E02A8B3B8B0E94D1162A893B8950
:101EF000CFCF2414350439F49A81963318F49533EE
:101F000011F404FF81E3B60190E04BC08A81813374
:101F100009F00F7EB60190E00E94D116111105C0A4
:101F200034FC18C085E690E017C0B6018EE290E060
:101F30000E94D11682E0EE24E394E80EF301E80F4C
:101F4000F11D8081B60190E00E94D11611508E2DB6
:101F500091F7E6CF85E490E0B6010E94D11657FCD8
:101F600005C04114510439F404FF05C05194419453
:101F700051088DE201C08BE2B60190E00E94D116BB
:101F800080E39AE0491651042CF08F5F5AE0451A1D
:101F90005108F7CFB60190E00E94D116B601C201F8
:101FA000C0960E94D11657C1833631F0833779F03D
:101FB000833509F058C021C05201E2E0AE0EB11CD9
:101FC000F2018081898301E010E0230114C05201F5
:101FD000F2E0AF0EB11CF2014080518026FF03C039
:101FE000612F70E002C06FEF7FEFC2012A8B0E9469
:101FF000C6168C012A892F7715C05201F2E0AF0E68
:10200000B11CF2014080518026FF03C0612F70E0B7
:1020100002C06FEF7FEFC2012A8B0E94BB168C01BA
:102020002A892068322E23FD1AC08F2D90E00817D0
:102030001907A8F4B60180E290E00E94D116FA9444
:10204000F4CFF20137FC859137FE81912F01B60163
:1020500090E00E94D116F110FA9401501109011577
:10206000110579F7F8C0843611F0893659F5520117
:1020700027FF09C0F4E0AF0EB11CF201608171814D
:10208000828193810AC0F2E0AF0EB11CF20160813F
:102090007181072E000C880B990B2F76322E97FF3B
:1020A00009C090958095709561957F4F8F4F9F4F98
:1020B0002068322E2AE030E0A3010E944D17E82E5E
:1020C000E6183FC0022F853721F40F7E2AE030E06A
:1020D0001DC0097F8F3691F018F4883559F0C5C0BE
:1020E000803719F0883711F0C0C0006104FF09C0C3
:1020F000046007C024FF08C0066006C028E030E086
:1021000005C020E130E002C020E132E0520107FFCB
:1021100009C0F4E0AF0EB11CF201608171818281CF
:10212000938108C0F2E0AF0EB11CF20160817181B1
:1021300080E090E0A3010E944D17E82EE6180F778B
:10214000302E36FE0BC0332D3E7FE11650F434FEA8
:102150000AC032FC08C0332D3E7E05C00E2D332D43
:1021600003C00E2D01C0012F34FF0CC0FE01EE0D87
:10217000F11D8081803311F4397E08C032FF05C023
:102180000E5F04C0832F867809F00F5F33FD13C004
:1021900030FF06C01E2D0F1518F41F0D101B0F2D3C
:1021A0000F1568F4B60180E290E03B8B0E94D116D7
:1021B0000F5F3B89F5CF0F1510F4F01A01C0F12C19
:1021C00034FF12C0B60180E390E03B8B0E94D11631
:1021D0003B8932FF17C031FD03C088E790E002C0A1
:1021E00088E590E0B6010CC0832F867859F031FF66
:1021F00002C08BE201C080E237FD8DE2B60190E0C3
:102200000E94D116E11638F4B60180E390E00E94F6
:10221000D1161150F7CFEA94F301EE0DF11D808134
:10222000B60190E00E94D116E110F5CF14C0F4E0A1
:10223000FF1558F584E0F81A33FE1EC0211026C0A1
:1022400003FF2AC00EE011E0F32DF0713F2EF801DC
:102250008491811124C0FF2009F4E5CCB60180E20D
:1022600090E00E94D116FA94F6CFF601868197810C
:1022700026C08FEF9FEF23C0B60180E290E00E945E
:10228000D116FA94F110F8CFD9CFF12CB601822DE6
:1022900090E00E94D116D4CF02E111E0D5CF3110E9
:1022A0008052B60190E00E94D1160F5F1F4FCFCF32
:1022B00023E02F1510F483E0BECFF12CC1CF63963D
:1022C0000FB6F894DEBF0FBECDBFDF91CF911F9147
:1022D0000F91FF90EF90DF90CF90BF90AF909F90C5
:1022E0008F907F906F905F904F903F902F900895C8
:1022F000DB018F939F930E94BE11BF91AF91A29F6C
:10230000800D911DA39F900DB29F900D11240895F3
:10231000AA1BBB1B51E107C0AA1FBB1FA617B7070B
:1023200010F0A61BB70B881F991F5A95A9F7809527
:102330009095BC01CD010895A1E21A2EAA1BBB1BEA
:10234000FD010DC0AA1FBB1FEE1FFF1FA217B30781
:10235000E407F50720F0A21BB30BE40BF50B661F97
:10236000771F881F991F1A9469F76095709580955B
:1023700090959B01AC01BD01CF0108950E94FF1112
:10238000A59F900DB49F900DA49F800D911D1124C9
:102390000895B7FF0C94BE110E94BE11821B930BCF
:1023A00008950F93083090F0982F872F762F652F80
:1023B000542F432F322F22270850F4CF220F331FE0
:1023C000441F551F661F771F881F991F0A95B2F774
:1023D0000F9108952A153B054C055D056E057F0597
:1023E0008007910708950024A7FD00942A1730055F
:1023F0004005500560057005800590050895A29F71
:10240000B001B39FC001A39F700D811D1124911DC8
:10241000B29F700D811D1124911D08955058BB2746
:10242000AA270E9426120C946A130E945C1338F0AB
:102430000E94631320F039F49F3F19F426F40C94A2
:1024400059130EF4E095E7FB0C945313E92F0E9407
:102450007B1358F3BA17620773078407950720F0B8
:1024600079F4A6F50C949D130EF4E0950B2EBA2F7B
:10247000A02D0B01B90190010C01CA01A00111248A
:10248000FF27591B99F0593F50F4503E68F11A1636
:10249000F040A22F232F342F4427585FF3CF4695C7
:1024A00037952795A795F0405395C9F77EF41F16E9
:1024B000BA0B620B730B840BBAF09150A1F0FF0FB3
:1024C000BB1F661F771F881FC2F70EC0BA0F621F9F
:1024D000731F841F48F4879577956795B795F7958F
:1024E0009E3F08F0B0CF9395880F08F09927EE0F24
:1024F0009795879508950E942F1308F481E0089519
:102500000E9494120C946A130E94631358F00E9464
:102510005C1340F029F45F3F29F00C9453135111E0
:102520000C949E130C9459130E947B1368F3992307
:10253000B1F3552391F3951B550BBB27AA276217BF
:102540007307840738F09F5F5F4F220F331F441FCC
:10255000AA1FA9F335D00E2E3AF0E0E832D0915000
:102560005040E695001CCAF72BD0FE2F29D0660FED
:10257000771F881FBB1F261737074807AB07B0E830
:1025800009F0BB0B802DBF01FF2793585F4F3AF036
:102590009E3F510578F00C9453130C949E135F3FAB
:1025A000E4F3983ED4F3869577956795B795F795BC
:1025B0009F5FC9F7880F911D9695879597F90895A4
:1025C000E1E0660F771F881FBB1F62177307840740
:1025D000BA0720F0621B730B840BBA0BEE1F88F74F
:1025E000E0950895E89409C097FB3EF49095809596
:1025F000709561957F4F8F4F9F4F9923A9F0F92FC9
:1026000096E9BB279395F695879577956795B79546
:10261000F111F8CFFAF4BB0F11F460FF1BC06F5F2C
:102620007F4F8F4F9F4F16C0882311F096E911C03E
:10263000772321F09EE8872F762F05C0662371F05F
:1026400096E8862F70E060E02AF09A95660F771F73
:10265000881FDAF7880F9695879597F90895990F4F
:102660000008550FAA0BE0E8FEEF16161706E8075C
:10267000F907C0F012161306E407F50798F0621B7D
:10268000730B840B950B39F40A2661F0232B242B52
:10269000252B21F408950A2609F4A140A6958FEF71
:1026A000811D811D089597F99F6780E870E060E0C3
:1026B00008959FEF80EC089500240A9416161706DB
:1026C00018060906089500240A9412161306140623
:1026D00005060895092E0394000C11F4882352F086
:1026E000BB0F40F4BF2B11F460FF04C06F5F7F4F3E
:1026F0008F4F9F4F089557FD9058440F551F59F025
:102700005F3F71F04795880F97FB991F61F09F3FDE
:1027100079F087950895121613061406551FF2CF07
:102720004695F1DF08C0161617061806991FF1CF57
:1027300086957105610508940895E894BB2766277E
:102740007727CB0197F908950E94B7130C946A1369
:102750000E945C1338F00E94631320F0952311F05F
:102760000C9453130C94591311240C949E130E942F
:102770007B1370F3959FC1F3950F50E0551F629F37
:10278000F001729FBB27F00DB11D639FAA27F00DCA
:10279000B11DAA1F649F6627B00DA11D661F829FF1
:1027A0002227B00DA11D621F739FB00DA11D621FD6
:1027B000839FA00D611D221F749F3327A00D611DF3
:1027C000231F849F600D211D822F762F6A2F1124D5
:1027D0009F5750409AF0F1F088234AF0EE0FFF1F08
:1027E000BB1F661F771F881F91505040A9F79E3F5F
:1027F000510580F00C9453130C949E135F3FE4F347
:10280000983ED4F3869577956795B795F795E795B4
:102810009F5FC1F7FE2B880F911D9695879597F9BD
:102820000895FA01EE0FFF1F309621053105A1F141
:102830006115710561F48038BFE39B0749F1689425
:102840009038810561F08038BFEF9B0741F09923F4
:102850004AF5FF3FE1053105210519F1E894089497
:10286000E795D901AA2329F4AB2FBE2FF85FD0F347
:1028700010C0FF5F70F4A695E0F7F73950F019F03B
:10288000FF3A38F49F779F930DD00F9007FC905834
:10289000089546F00C94591360E070E080E89FE3DF
:1028A00008954FE79F775F934F933F932F930E9435
:1028B00067152F913F914F915F910E94A4130C9443
:1028C000AF1419F416F40C9459130C94E1140E94EB
:1028D0008313B8F39923C9F3B6F39F57550B87FFBA
:1028E0000E94EF140024A0E640EA9001805856951B
:1028F000979528F4805C660F771F881F20F02617B5
:102900003707480730F4621B730B840B20293129E9
:102910004A2BA69517940794202531254A2758F766
:10292000660F771F881F20F026173707480730F4F7
:10293000620B730B840B200D311D411DA09581F797
:10294000B901842F9158880F96958795089529F499
:1029500016F00C9453130C949D130C9459130E946D
:102960008313A8F39638A0F707F80F92E8942BE3A7
:102970003AEA48EB5FE70E94BA130F920F920F9268
:102980004DB75EB70F920E94AF15ECE8F0E00E94E1
:10299000F6144F915F91EF91FF91E595EE1FFF1FA8
:1029A00049F0FE57E0684427EE0F441FFA95E1F71F
:1029B0004195550B0E9429150F9007FE0C941D158B
:1029C00008959F3F31F0915020F487957795679552
:1029D000B795880F911D9695879597F90895915011
:1029E0005040660F771F881FD2F70895DF93CF936B
:1029F0001F930F93FF92EF92DF927B018C016894FB
:102A000006C0DA2EEF010E94B713FE01E894A591EB
:102A10002591359145915591A6F3EF010E9426121B
:102A2000FE019701A801DA9469F7DF90EF90FF901B
:102A30000F911F91CF91DF9108959B01AC0160E050
:102A400070E080E89FE30C9480120C9453130C9474
:102A5000E1140E948313D8F39923C9F3940F511DF5
:102A6000A3F39150504094F059F0882332F0660F50
:102A7000771F881F91505040C1F79E3F51052CF79A
:102A8000880F911D9695879597F908955F3FACF053
:102A9000983E9CF0BB27869577956795B79508F487
:102AA000B1609395C1F7BB0F58F711F460FFE8CF01
:102AB0006F5F7F4F8F4F9F4FE3CF0C949E1316F0A5
:102AC0000C94E1140C94591368940C9453130E94C1
:102AD0008313A8F39923C1F3AEF3DF93CF931F932E
:102AE0000F93FF92C92FDD2788232AF02197660FC5
:102AF000771F881FDAF720E030E040E85FEB9FE3C4
:102B0000883920F0803E38F021968F770E940F128E
:102B1000E4EBF0E004C00E940F12E1EEF0E00E944E
:102B2000F6148B01BE01EC01FB2E6F5771097595F0
:102B3000771F880B990B0E94F41228E132E741E3DA
:102B40005FE30E94B713AF2D9801AE01FF900F9184
:102B50001F91CF91DF910E9426120C946A13FA0103
:102B6000DC01AA0FBB1F9B01AC01BF5728F4222731
:102B700033274427507820C0B75190F4AB2F00245E
:102B8000469537952795011CA395D2F3002071F047
:102B9000220F331F441FB395DAF30ED00C940E129C
:102BA00061307105A0E88A07B94630F49B01AC0199
:102BB0006627772788279078309621F02083318305
:102BC000428353830895283008F027E03327DA0141
:102BD000990F311D87FD916000966105710539F4EB
:102BE00032602E5F3D9330E32A95E1F708959F3FD1
:102BF00030F080387105610509F03C5F3C5F3D9322
:102C0000913008F08068911DDF93CF931F930F934D
:102C1000FF92EF92192F987F9695E92F96959695AA
:102C2000E90FFF27E059FE4F99273327EE24FF24B1
:102C3000A701E70105900894079428F4360FE71ED2
:102C4000F81E491F511D660F771F881F991F069494
:102C5000A1F70590079428F4E70EF81E491F561FA8
:102C6000C11D770F881F991F661F0694A1F7059055
:102C7000079428F4F80E491F561FC71FD11D880F4F
:102C8000991F661F771F0694A1F70590079420F4FB
:102C9000490F561FC71FD81F990F661F771F881F20
:102CA0000694A9F784911095177041F0D695C795B1
:102CB00057954795F794E7941A95C1F7E6E1F1E047
:102CC00068941590159135916591959105907FE2E5
:102CD0007395E118F10A430B560BC90BD009C0F7E5
:102CE000E10CF11E431F561FC91FD01D7EF4703327
:102CF00011F48A95E6CFE894015030F0080F0AF4F9
:102D00000027021708F4202F2395022F7A3328F08A
:102D100079E37D932A95E9F710C07D932A9589F68A
:102D2000069497956795379517951794E118F10ACA
:102D3000430B560BC90BD00998F023957E917395E0
:102D40007A3308F070E37C932013B8F77E917061BA
:102D50007D9330F0839571E37D9370E32A95E1F7DD
:102D60001124EF90FF900F911F91CF91DF91992740
:102D700087FD90950895FC01059061507040011009
:102D8000D8F7809590958E0F9F1F0895FC01615094
:102D9000704001900110D8F7809590958E0F9F1F7D
:102DA00008950F931F93CF93DF93FB01238121FDA0
:102DB00003C08FEF9FEF28C022FF16C046815781C6
:102DC000248135814217530744F4A081B1819D01CC
:102DD0002F5F3F4F318320838C93268137812F5F74
:102DE0003F4F3783268310C0EB01092F182F008433
:102DF000F185E02D0995892BE1F68E819F81019661
:102E00009F838E83812F902FDF91CF911F910F9100
:102E10000895CF93DF93CDB7DEB7AE014B5F5F4F21
:102E2000FA0161917191AF018091FD019091FE01D4
:102E30000E94D30DDF91CF9108950F931F93CF93ED
:102E4000DF93E091FD01F091FE01238121FF1BC082
:102E50008C01D0E0C0E0F80181918F016091FD010B
:102E60007091FE01DB011896ED91FC911997882372
:102E700031F00995892B79F3DFEFCFEFECCF8AE0C2
:102E80000995892B19F08FEF9FEF02C08D2F9C2F92
:102E9000DF91CF911F910F910895FA01AA27283051
:102EA00051F1203181F1E8946F936E7F6E5F7F4F17
:102EB0008F4F9F4FAF4FB1E03ED0B4E03CD0670F93
:102EC000781F891F9A1FA11D680F791F8A1F911DE6
:102ED000A11D6A0F711D811D911DA11D20D009F436
:102EE00068943F912AE0269F11243019305D319378
:102EF000DEF6CF010895462F4770405D4193B3E061
:102F00000FD0C9F7F6CF462F4F70405D4A3318F007
:102F1000495D31FD4052419302D0A9F7EACFB4E0B8
:102F2000A6959795879577956795BA95C9F7009770
:102F30006105710508959B01AC010A2E0694579511
:102F4000479537952795BA95C9F7620F731F841F68
:0A2F5000951FA01D0895F894FFCF0F
:102F5A000000000200000000AA090000000042452B
:102F6A0047494E00424D5032383020636F6E6E65CD
:102F7A006374696F6E204F4B00424D5032383020D7
:102F8A00636F6E6E656374696F6E206E6F74204F27
:102F9A004B004144584C20494E4954204F4B004164
:102FAA0044584C20494E4954204E4F54204F4B0010
:102FBA002074656D70203D20256C640A207072654E
:102FCA007373203D20252E34660A20616C74203DDF
:102FDA0020252E34660A2078203D20252E36660AC2
:102FEA002079203D20252E36660A207A203D20258C
:102FFA002E36660A206D6F64756C655F67203D200A
:10300A00252E36660A2074656D70203D20253466AB
:10301A000D0A00536F6D65206D6561737572656D7C
:0C302A00656E74206E6F74204F4B000028
:00000001FF
